:020000040800F2
:10000000D804002001010008111F0008E91A0008A7
:100010000D1F0008250800082D2000080000000022
:10002000000000000000000000000000711F000838
:100030002908000800000000411F0008A51F000853
:100040001B0100081B0100081B0100081B01000820
:100050001B0100081B0100081B0100081B01000810
:100060001B0100081B0100081B0100081B01000800
:100070001B0100081B0100081B0100081B010008F0
:100080001B0100081B0100081B0100081B010008E0
:100090001B0100081B0100081B0100081B010008D0
:1000A0001B0100081B0100081B0100081B010008C0
:1000B0001B0100081B0100081B0100081B010008B0
:1000C0001B0100081B0100081B0100081B010008A0
:1000D0001B0100081B0100081B0100081B01000890
:1000E0001B0100081B0100081B010008DFF80CD0F1
:1000F00000F000FB0048004711210008D804002050
:100100000648804706480047FEE7FEE7FEE7FEE7B1
:10011000FEE7FEE7FEE7FEE7FEE7FEE72920000830
:10012000ED000008D2B201E000F8012B491EFBD21D
:1001300070470022F6E710B513460A4604461946F2
:10014000FFF7F0FF204610BD2DE9FE4F804681EA03
:100150000300C00F0C46009021F0004123F0004541
:10016000B8EB0200A94105D24046214690461C4604
:100170000B46024623F00040104347D0270DC7F33B
:100180000A00C3F30A510290401A019040286BDA2A
:10019000C3F3130040F4801B0098924620B1002363
:1001A000D2EB030A63EB0B0B01985946C0F14002F6
:1001B000504600F051F906460D4650465946019A00
:1001C00000F059F910EB08006141002487EA115250
:1001D00084EAE7731A4340D0009A62B3019A012A75
:1001E0004FEA075215DC001B61EB02014FF00042A1
:1001F00002EA0752CDE90042001C41F58011324667
:100200002B4600F059F903B0BDE8F08F4046214677
:10021000F9E7001B61EB0201001C41F58013001897
:100220005B412018A2F5001747EB030140EAD570A7
:10023000B6196D4111E06D084FEA360645EAC07502
:100240004FEA0752001B61EB0201001C41F58011CF
:1002500049084FEA30000019514132462B4603B09D
:10026000BDE8F04F00F019B90098012240000023CA
:10027000D0EB020263EBE073009821464FEAE07492
:10028000B8EB000061EB0401E9E783F000435BE7B2
:1002900081F0004158E72DE9FE4F81EA030404F0A4
:1002A000004421F0004100944FF0000B23F0004384
:1002B00050EA01045ED052EA03045BD0C3F30A544F
:1002C000C1F30A552C44A4F2F3340194A0FB025468
:1002D000C1F3130141F48011C3F3130343F48013FA
:1002E00001FB024400FB034E840A970A44EA81544E
:1002F00047EA8357A4FB076802958D0A05FB07852B
:100300004FEA932C04FB0C542705029D4FEA065834
:1003100047EA1637B5EB08056EEB070C870E920E11
:1003200047EA811742EA8312A7FB0201B6EB0B01F1
:1003300064EB00042B0D43EA0C335E1844EB1C50B5
:10034000DA465146E7FB0201C5F313044FEA0B33CB
:1003500043EA14534FEA0432019C43EA0603A4F132
:100360000C040294009CCDE900B400F0A5F803B0A1
:10037000BDE8F08F00200146F9E730B5041E71F1A9
:10038000000404DB4FF00044404264EB0101141E02
:1003900073F1000405DB1C464FF00043524263EB4F
:1003A0000403801A994101D3012030BD002030BDE3
:1003B0000EB540F2334102910021CDE900110A4609
:1003C0000B4600F079F803B000BD30B50B4601468E
:1003D00000202022012409E021FA02F59D4205D3E4
:1003E00003FA02F5491B04FA02F52844151EA2F18E
:1003F0000102F1DC30BD2DE9F05F05460020924698
:100400009B4688460646814640241BE028464146D6
:100410004746224600F080F953465A46C01A914199
:1004200010D311461846224600F016F82D1A67EB35
:1004300001084F4622460120002100F00DF817EB7D
:1004400000094E41201EA4F10104DFDC484631467C
:100450002A464346BDE8F09F202A04DB203A00FAF2
:1004600002F1002070479140C2F1200320FA03F30B
:10047000194390407047202A06DBCB17203A41FAF7
:1004800002F043EAE07306E041FA02F3D040C2F121
:100490002002914008431946704710B5141E73F1AD
:1004A000000408DA401C41F1000192185B411A4334
:1004B00001D120F0010010BD2DE9F04D92469B4680
:1004C00011B1B1FA81F202E0B0FA80F22032904626
:1004D000FFF7C2FF04460F4640EA0A0041EA0B015B
:1004E00053465A46084313D0114653EA010019D027
:1004F000C8F14002504600F00FF905460E4650463E
:1005000059464246FFF7A8FF084305D0012004E002
:1005100020463946BDE8F08D0020054346EAE076E6
:100520002C4337430A986305E40AA0EB0800002235
:10053000FD0A44EA47540A3002D500200146E9E7A3
:10054000010510196941DDE9084500196941BDE857
:10055000F04DA2E72DE9F04D81EA030404F0004BD1
:1005600021F0004514464FF0000A23F0004150EA04
:10057000050220D054EA01021DD0C5F30A570246F5
:10058000C5F31303C1F31300C1F30A5640F48015F9
:1005900043F48013A7EB0608101BD64608F2FD387B
:1005A00073EB050002D308F1010801E092185B41EA
:1005B000B8F1000F03DA00200146BDE8F08D0020FD
:1005C0004FF48011064684460EE0171B73EB0507B7
:1005D00005D3121B63EB050306434CEA010C4908E3
:1005E0004FEA300092185B4150EA0107EDD152EA20
:1005F000030012D082EA040083EA0501084305D013
:10060000101BAB4106D20122002306E000224FF06E
:10061000004302E06FF0010253101AEB06004CEBAE
:10062000085110EB0A0041EB0B01BDE8F04DFFF75C
:1006300034BFC1F30A52C1F3130140F2FF3341F456
:1006400080119A4202DA00200146704740F233439B
:100650009A42A2F2334202DC524200F05DB8FFF748
:10066000FBBE000030B5041E71F1000404DB4FF046
:100670000044404264EB0101141E73F1000405DBE9
:100680001C464FF00043524263EB0403994208BFFB
:10069000904230BD70B5044601F00045002005438E
:1006A00004D14FF00045644265EB010103F00045C1
:1006B000284304D14FF00040524260EB0303101B6B
:1006C00073EB010002D24FF0004009E082EA04021D
:1006D00083EA01034FF000501A4301D14FF0C040AC
:1006E000EFF3008121F07F4141EA000181F30088AE
:1006F00070BD0000064C074D06E0E06840F00103C5
:1007000094E8070098471034AC42F6D3FFF7F2FCA8
:10071000583E0008783E0008202A04DB203A21FADF
:1007200002F00021704721FA02F3D040C2F120020A
:100730009140084319467047B0B504460068816887
:10074000C90709D0816821F00101816000F014FC23
:1007500021688968C90701D10020B0BD054603E0C2
:1007600020688068C007F7D000F006FC401B032813
:10077000F6D320688068C007F2D0A06A40F010006D
:10078000A062E06A40F00100E0620120B0BD00001C
:10079000B0B582B004460020019021688A68D20773
:1007A0003DD1886840F00100886040F20000C2F24C
:1007B000000000684DF68361C4F21B31A0FB01010B
:1007C000880C00BF0190019810B101980138F9E739
:1007D00000F0D2FB21688968C9071CD1054603E0F7
:1007E00020688068C00719D100F0C6FB401B0328B1
:1007F000F6D320688068C007F2D1A06A40F01000EC
:10080000A062E06A40F00100E062002084F8240069
:10081000012002B0B0BD002002B0B0BD002002B087
:10082000B0BD0000FEE7000070470000EFF310804D
:1008300072B600BFFEE70000B0B581B000220092A2
:1008400090F82420012A01D1022179E04A6801238D
:10085000062A80F8243005D803686FF0040C03F1F1
:10086000340E0AE003680C2A87BF03F12C0E6FF0E8
:10087000400C03F1300E6FF0220C02EB8202DEF826
:10088000005062441F230C68934025EA030304FAD6
:1008900002F21A43CEF80020D1F800E002680EEB15
:1008A0004E051024BEF1090F88BF1E3D88BF0C24E1
:1008B00052F804C007238968AB402CEA0303A9401F
:1008C000194311512EF001014FF0000C10294FF087
:1008D000000133D1016842F20042C4F201029142A8
:1008E00005D0816A41F020018162012126E09268F1
:1008F000120222D48A68BEF1100F42F400028A600C
:100900001BD140F20001C2F2000109684DF683627A
:10091000C4F21B32A1FB0212910C01EB81014900D0
:100920000091009949B100BF0099013900910099E7
:1009300000294FF00001F7D100E0002180F824C029
:10094000084601B0B0BD00000068C06C70470000F0
:10095000002804BF01207047F0B581B00746044667
:1009600057F8280F30B90020E06284F824002046B0
:1009700000F07AF82046FFF7DFFEA26AA16A00289D
:1009800008BF12F0100205D041F0100101203960BB
:1009900001B0F0BD41F2021291430231A162E1695E
:1009A000D4E9013241EA0305511EB1FA81F1490946
:1009B0001346B2F5807F18BF0B02267D217B012EE6
:1009C00045EA410C11D141B1A16A41F02001A16277
:1009D000E16A41F00101E16207E0A1694EF600061B
:1009E000CFF6FF7606EB41310B432168B2F5807FED
:1009F0004E6826F4694643EA06034B608B684FF263
:100A0000FD76CFF6E17603EA060343EA0C038B603A
:100A100001D0012A06D122690023CFF6F07303EB3F
:100A2000025200E00022CB6A23F470031A43CA6228
:100A3000896840F6FE62CFF61F721140614506D10B
:100A40000021E162A16A012262F301019FE7A06A2D
:100A500040F0100020F00200A06254F82C0F40F08B
:100A600001010120274692E780B586B0014640F695
:100A70000000C4F20100096800F5E05291424FF015
:100A80000001CDE90411CDE9021101D006B080BD0D
:100A900041F21801C4F202010A6842F400720A60CD
:100AA0000A6802F400720192019A0A6842F0040294
:100AB0000A60096801F00401019101990221029183
:100AC0000321039102A900F04DF906B080BD00009A
:100AD0002DE9F04182B000260D460446019600F053
:100AE0004BFA21688A68D2053CD480464868C00524
:100AF00003D4C86A10F4700F3ED040F20000C2F276
:100B000000000668022000F053FC216844F624131C
:100B10000A69B6FBF0F0C2F292431A4206D1CA68E3
:100B200044F62413C0F292031A423ED00A6942F2FC
:100B30009243C1F249231A4206D1CA6842F2924353
:100B4000C0F249031A4242D00A6949F24923C0F26D
:100B500024031A424FF0FC023AD1C968194208BF77
:100B6000542235E0A06A40F02000A06284F824609E
:100B7000012002B0BDE8F08120680068800743D4FE
:100B80006E1C07E02068006880075CD5206800685C
:100B9000800739D4002EF9D0002DF3D000F0ECF905
:100BA000A0EB0800A842EDD8F0E70A6942F29243B0
:100BB000C1F249231A424FF0290209D1C96842F211
:100BC0009243C0F24903194208BF142200E05422A4
:100BD000019902FB00F7B94216D26E1C09E000BF72
:100BE0000198B8422FD30198013001900198B84282
:100BF0000AD2002EF7D0002DF2D000F0BDF9A0EB04
:100C00000800A842ECD8EEE720686FF012010160FE
:100C1000A16A41F40071A162806800F46020B0F51F
:100C2000602F0CD1207B50B9A06A20F48070A062A4
:100C3000A06AC00403D4A06A40F00100A0620020B2
:100C400002B0BDE8F081A06A40F00400A06200207C
:100C500084F82400032002B0BDE8F08110B50446FA
:100C600090F82400012804BF022010BD012084F860
:100C700024002046FFF78CFD18B1002184F82410D1
:100C800010BD42F2044C2168A26AC4F2010C40F289
:100C900001339A430CF57F7E02F580727145A262A2
:100CA00007D0A26A22F48012A2624A68520519D4BF
:100CB0001DE0DCF8002012F4702FF2D0A26A42F698
:100CC0000003C4F2010342F480129942A26205D0EB
:100CD00042F20042C4F20102914208D1DCF8002045
:100CE000520504D5A26A012363F30D32A262A36AFE
:100CF0000022DB044FF0000344BFE36A23F0060345
:100D0000E36284F824206FF002020A608A6802F429
:100D10006022B2F5602F0BD1714504D08A6842F48D
:100D2000A0028A6010BDDCF8002012F4702FF5D00C
:100D30008A6842F480128A6010BD0000B0B5044693
:100D400000F01AF9054640F20400C2F200000078F3
:100D5000611C18BF044400BF00F00EF9401BA04204
:100D6000FAD3B0BD2DE9F04F82B00E68002E00F02E
:100D7000F38041F20042C4F20102042340F2004E2B
:100D8000904208BF03234FF6FF7CC4F2010E00938C
:100D900000240123C1F2100C4FF0000A4FF00009AB
:100DA00040E0012504F00C030F279F402BEA0707C2
:100DB00005FA03F33B4342F826304E68F203DEF8AF
:100DC000002054BF22EA080242EA0802CEF80020BE
:100DD000DEF80420B30354BF22EA080242EA080204
:100DE000CEF80420F302DEF8082054BF22EA0802FD
:100DF00042EA0802B30240F20C43CEF80820C4F2E3
:100E000001031A6854BF22EA080242EA08021A6083
:100E100001230E680AF1010A36FA0AF204F1040409
:100E200000F09A8003FA0AFB16EA0B08F1D04A6830
:100E3000624511DC122A51D8DFE802F0340A42463A
:100E400050505050505050505050505050494D00FC
:100E5000D1F80C9042E000BF4FF6FF75C1F22105BA
:100E6000AA420FDC0025C1F21105AA421AD00025C2
:100E7000C1F21205AA4215D00025C1F22105AA42ED
:100E800010D02BE00025C1F22205AA420AD000258D
:100E9000C1F23105AA4205D00025C1F23205AA42AD
:100EA0001CD100BF8A6842B1012A14BFC0F814B037
:100EB000C0F810B04FF0080910E04FF004090DE041
:100EC000CA6802F1080909E04FF0000906E0CA68A3
:100ED00002F1040902E0CA6802F10C092246054643
:100EE000B8F5807F24BF203A04352E680F2797403D
:100EF000BE4309FA02F232432A60CA79D2067FF56C
:100F000088AF41F21803C4F202031A684FEA9A0646
:100F100042F001021A601A6840F6000302F0010272
:100F20000192019AAEF57E7252F826B0C4F2010326
:100F300098420FD040F60043C4F2010398423FF4B8
:100F400030AF41F20003C4F20103009D984208BF94
:100F5000022527E7002525E702B0BDE8F08F000055
:100F60008068084018BF012070470000002A08BFB1
:100F7000090401617047000040F2D000C2F2000095
:100F800000687047F0B581B0B0B3044690F83D00FA
:100F900028B9002084F83C00204600F055F92420B0
:100FA00084F83D002068016821F0010101600168BA
:100FB00041F400410160016821F40041016000F04A
:100FC000B5FB48F28041C0F21E0140F60012656890
:100FD00088424FF00001C0F23D0248F2A16C4FF090
:100FE000000338BF01219042C0F2010C38BF012339
:100FF000654538BF0B4613B1012001B0F0BD4DF679
:101000008361C4F21B31A0FB011221684FEA924EAA
:101010004B684FF4967623F03F0343EA92434B60CC
:1010200044F6D3530F6A0EFB06F6C1F26203A6FB29
:10103000033627F03F03B709654538BF970C7A1C84
:101040001A430A62CA6948F2A0674CF6FF73C0F2FD
:101050000107BD4222EA030C0AD801386A00B0FB3E
:10106000F2F001306FF31F30042898BF04202BE00A
:10107000A368A0F1010E9BB119206843BEFBF0F0FC
:101080000422013062F31F30000512D09BB11920F9
:101090006843BEFBF0F00422013062F31F3011E020
:1010A00005EB4500BEFBF0F001306FF31F3000058B
:1010B000ECD1012008E005EB4500BEFBF0F001306B
:1010C0006FF31F3040F4004040EA0C00C86108682C
:1010D000D4E9072320F0C000104318430860886853
:1010E00048F2FF3204F10C0790438CCF18431043B1
:1010F000A6698860C86820F0FF0038433043C860A4
:10110000086840F00100086000202021206484F875
:101110003D10206384F83E0001B0F0BD2DE9F0439E
:1011200083B0994616460F460446FFF725FF94F80C
:101130003D1020290ED102210546C0F210012046A3
:1011400001221923009500F079FD18B994F83C00AC
:10115000012803D1022003B0BDE8F08301212268F9
:1011600084F83C101368DDE90B080A99DB0703D10A
:10117000136843F001031360136823F400631360E2
:10118000212284F83D20402284F83E20002222645F
:1011900061626085608D394620850020CFF6FF7042
:1011A000E062204632464B46CDF80080019500F0C3
:1011B000B5FC30B3012003B0BDE8F08320464146C2
:1011C0002A4600F0BBFD28BB606A2168034613F87D
:1011D000012B0A61228D6362571E2785638D3F04B0
:1011E000A3F1010363854B6918BF13F0040308D012
:1011F000437802300B616062901E2085608D01385B
:101200006085208D0028D9D1204641462A4600F02D
:10121000E5FC40B1206C0428CCD12068016841F481
:1012200000710160C6E72068016841F40071016047
:10123000202084F83D00002084F83E0084F83C0023
:1012400003B0BDE8F083000010B586B0016845F238
:101250000040C4F2000081424FF00001CDE90411CA
:10126000CDE9021101D006B010BD41F21804C4F25C
:101270000204216800F5384041F00801216021682E
:1012800001F0080101910199C021029112210391FD
:101290000321059102A9FFF765FD606840F4001085
:1012A0006060606800F400100190019806B010BD05
:1012B00040F2040040F2D001C2F20000C2F200018C
:1012C00000780A68104408607047000080B542F258
:1012D0000000C4F20200016841F010010160032027
:1012E00000F062F8002000F005F800F02BF8002074
:1012F00080BD0000B0B540F20402C2F2000240F22C
:1013000000011278C2F200014FF47A730968B3FB4E
:10131000F2F20446B1FBF2F1084600F0E1FB0F2CBB
:101320004FF001050CD858B94FF0FF30214600228C
:10133000002500F029F840F20800C2F20000046025
:101340002846B0BD82B041F21800C4F20200016824
:10135000022241F001010160016801F001010191E7
:101360000199416841F080514160406800F080502F
:10137000009000980420C4F20100016862F31A6131
:10138000016002B07047000070B514460D46064675
:1013900000F04EFE2946224600F0BCFD01463046D4
:1013A00000F04EFE70BD000080B500F05BFE80BD19
:1013B00080B5012818D0022841D010283DD141F233
:1013C0000401C4F202010A6851F8040CC00134D5CA
:1013D000C2F383402EA3185CD2033FD440F6001220
:1013E000C0F23D02504345E041F20400C4F2020065
:1013F000C16940F202320A40B2F5817F04BF4FF466
:10140000004080BD01F44071B1F5407F0DD0B1F5D1
:10141000007F12D1026A920744BF49F6404080BD66
:10142000B1F5407F1CBF002080BD50F8040C4FF286
:101430002441800301EAE07080BD002080BD00F0FF
:1014400087F941F20401C4F2020109680222C1F3E2
:10145000813102EB4101B0FBF1F080BD0A6810A3BD
:10146000C2F340429A5C41F20023C0F27A03B3FB1C
:10147000F2F250430968490248BF80BD4AF6AB21E9
:101480004000CAF6AA21A0FB0101480880BD00BFA8
:1014900002030405060708090A0B0C0D0E0F1010B5
:1014A000010200002DE9F04182B00446007841F2CB
:1014B0001C06C007C4F202064AD0306810F08058FB
:1014C00008D1306840F080503060306800F08050C3
:1014D0000190019847F20007C4F200073868C00580
:1014E00012D4386840F480703860FFF745FD054637
:1014F0003868C00508D4FFF73FFD401B6428F7D9C2
:10150000032002B0BDE8F081706810F4407012D082
:10151000616801F4407188420DD0706840F2404229
:10152000C4F24222012320F4407113600023C0075B
:101530001360716029D17068616820F440700843BD
:10154000B8F1000F706003D1306820F08050306037
:101550002068810707D556F8181CA26821F440417D
:10156000114346F8181CC00603D4002002B0BDE8A1
:10157000F08156F8180CE16820F48000084346F822
:10158000180C002002B0BDE8F081FFF7F5FC05461D
:1015900041F2883770688007CDD4FFF7EDFC401B1F
:1015A000B8424FF00300F5D9ECE700002DE9F04315
:1015B00081B0002800F0898042F20008C4F20208DD
:1015C0000446D8F800000D4600F0070088420CD20F
:1015D000D8F8000020F007002843C8F80000D8F829
:1015E000000000F00700A8426FD1206841F2040912
:1015F0008107C4F2020917D5410705D5D9F80010B3
:1016000041F4E061C9F80010010705D5D9F80010D0
:1016100041F46051C9F80010D9F80010A26821F017
:10162000F0011143C9F80010C00745D1D8F80000F7
:1016300000F00700A8420CD9D8F8000020F00700FD
:101640002843C8F80000D8F8000000F00700A842BE
:101650003BD12068410707D5D9F80010E26821F492
:10166000E0611143C9F80010000708D5D9F800005F
:10167000216920F4605040EAC100C9F8000000F080
:1016800079F8D9F8001043F28E32C1F30311C0F695
:101690000002515C40F2000220FA01F140F2080021
:1016A000C2F200000068C2F200021160FFF722FEE1
:1016B000002001B0BDE8F0836068022809D001284D
:1016C00029D159F8041C890307D4012001B0BDE8D1
:1016D000F08359F8041C8901F7D5D9F8001021F0DE
:1016E00003010843C9F80000FFF746FC064641F233
:1016F000883700BFD9F80000616800F00C00B0EB3B
:10170000810F93D0FFF738FC801BB842F2D9032039
:1017100001B0BDE8F08359F8041C8907D5D5DCE792
:1017200040F20000C2F200000068704780B5FFF789
:10173000F7FF41F20401C4F20201096843F29E324C
:10174000C1F30221C0F60002515CC84080BD000018
:1017500080B5FFF7E5FF41F20401C4F20201096818
:1017600043F29E32C1F3C221C0F60002515CC84070
:1017700080BD000041F2040CC4F2020CDCF8003021
:1017800003F00C00082841F20020C0F27A0018BFD4
:101790007047C3F383420AA18A5CD90305D440F69B
:1017A0000010C0F23D0050437047DCF8001008A361
:1017B000C1F34041595C5043B0FBF1F0704700BFAA
:1017C00002030405060708090A0B0C0D0E0F101082
:1017D000010200002DE9F04182B0002800F0C48031
:1017E0000446007841F20006C007C4F2020643D066
:1017F000706800F00C00042817D0706800F00C002E
:10180000082802D17068C0030FD465682DB1B5F502
:10181000A02F10D0B5F5803F11D0306820F4803073
:101820003060306820F480200CE03068800323D5DD
:10183000606808BB98E0306840F480203060306811
:1018400040F480303060FFF797FB002D054610D044
:101850003068800310D4FFF78FFB401B6428F7D952
:1018600004E100BFFFF788FB401B64284FF0030032
:1018700077D830688003F5D42078800718D5706851
:1018800010F00C0F07D0706800F00C00082826D16B
:101890007068C00323D43068800702D5206901280E
:1018A00062D13068616920F0F80040EAC100306020
:1018B000207800073DD5A06938B30020C4F242204B
:1018C0000121C0F88014FFF757FB0546706A8007B6
:1018D0002DD4FFF751FB401B0228F7D9C6E0206941
:1018E000002840F20000C4F2422000F0968001215E
:1018F0000160FFF741FB054630688007D1D4FFF750
:101900003BFB401B0228F7D9B0E00020C4F2422084
:101910000021C0F88014FFF72FFB0546706A80078E
:1019200007D5FFF729FB401B0228F7D99EE000F0FE
:1019300009FB207840071BD4E5698DB1706800F081
:101940000C00082847D1012D0ED07068216A00F4E0
:1019500080328A4208D1616A00F47010884203D153
:10196000002002B0BDE8F081012002B0BDE8F081A6
:10197000F06910F0805808D1F06940F08050F061B3
:10198000F06900F080500190019847F20007C4F21E
:1019900000073868C00510D4386840F4807038609B
:1019A000FFF7EAFA054600BF3868C00505D4FFF71F
:1019B000E3FA401B6428F7D958E0E5681DB1052D0E
:1019C0003CD0012D3ED0306A20F001003062306AF8
:1019D00020F0040039E00027C4F2422700203866D6
:1019E000FFF7CAFA022D05460CD100BF306880010E
:1019F00054D5FFF7C1FA401B02284FF00300F5D978
:101A0000AFE700BF30688001AAD5FFF7B5FA401BE9
:101A100002284FF00300F5D9A3E700210160FFF78A
:101A2000ABFA0546306880077FF542AFFFF7A4FAAE
:101A3000401B02284FF00300F4D992E7306A40F0CF
:101A400004003062306A40F001003062FFF794FA1F
:101A5000002D054641F2883714D000BF306A800758
:101A600013D4FFF789FA401BB842F7D9032002B01C
:101A7000BDE8F081FFF780FA401BB8424FF0030049
:101A80003FF66FAF306A8007F4D4B8F1000F7FF4EF
:101A900053AFF06920F08050F0614DE7206AB0F557
:101AA000803F05D17168A26821F400311143716053
:101AB0007168626A21F47411104308437060012058
:101AC0003866FFF759FA0446306880013FF548AFA1
:101AD000FFF752FA001B02284FF00300F4D940E749
:101AE00080B500F047FA80BDFEE70000026851694A
:101AF00049054FF000010FD56FF480635361202238
:101B0000016380F83D2080F83E10026C42F0040230
:101B1000026480F83C100121084670472DE9F0432B
:101B200083B0044600680D4601680A9F0B9E41F48D
:101B3000807199469046016020464FF001110022C5
:101B40003B46009600F07AF850B120680068C00566
:101B500044BF4FF400702064032003B0BDE8F0835D
:101B6000206805F0FE0101610221C0F2010120465A
:101B70003A46334600F09CF818B1012003B0BDE8A6
:101B8000F08300200290206832464169029180690A
:101B9000394602900298204600F0D0F840B1206CFF
:101BA0000428EAD12068016841F400710160E4E78B
:101BB000B9F1010F0AD020684FEA182101612046CF
:101BC0003946324600F0BAF80028E8D120685FFABA
:101BD00088F10161002003B0BDE8F083F0B581B069
:101BE000044600684069400724D415460E464F1C41
:101BF00004E000BF2068406940071BD42046FFF77F
:101C000075FFA0B9002FF5D0FFF7B6F916B1401B4C
:101C1000B042EFD900202021206384F83D1084F8E1
:101C20003E00216C41F02001216484F83C00012039
:101C300001B0F0BD002001B0F0BD00002DE9F0477B
:101C4000DDF820801D469146824601F47F078EB262
:101C50005C1C00BFDAF80000B7F5803F14BF1830F5
:101C6000143000683040801BB0FA80F040094845CD
:101C70001BD1002CEED0FFF77FF91DB1A0EB0800BF
:101C8000A842E7D900202021CAF830008AF83D1088
:101C90008AF83E00DAF8401041F02001CAF84010FE
:101CA0008AF83C000120BDE8F0870020BDE8F087FD
:101CB0002DE9F04104460068984643698FB203EA73
:101CC0000701B94202D10020BDE8F0814169490510
:101CD00012D41646551C00BF35B1FFF74DF916B3A7
:101CE000A0EB0800B0421ED8206841693940B942D3
:101CF000E9D041694905EFD5016841F400710160FF
:101D00006FF48061416100202021206384F83D1040
:101D100084F83E00216C41F00401216484F83C0009
:101D20000120BDE8F08100202021206384F83D10CF
:101D300084F83E00216C41F02001EEE7F0B581B05F
:101D4000044600684069000624D415460E464F1C20
:101D500004E000BF2068406900061BD42046FFF75E
:101D6000C5FEA0B9002FF5D0FFF706F916B1401B4C
:101D7000B042EFD900202021206384F83D1084F880
:101D80003E00216C41F02001216484F83C000120D8
:101D900001B0F0BD002001B0F0BD0000B0B584B0CE
:101DA00040F2200042F200410024C2F20000C4F2DE
:101DB00001014FF4602201250394CDE9014404732D
:101DC0000475C261C0E9001484600561FEF7C0FDBE
:101DD00068B940F22000C2F2000001A9CDE9015526
:101DE0000394FEF729FD002804BF04B0B0BDFEF740
:101DF0001DFD00002DE9F04786B0002441F21800D7
:101E0000CDE90444CDE90244C4F20200016840F681
:101E1000000841F0100101600168C4F2010801F0FE
:101E2000100101910199016808F5006641F0200157
:101E300001600168002201F020010191019901680F
:101E40004FF4005741F004010160016801F0040102
:101E500001910199016841F00801016000684FF4A7
:101E6000005100F00800019001983046FFF77EF81D
:101E700008F580694846012100220125FFF776F820
:101E8000CDE9027502AF4FF0020A3046394604949C
:101E9000CDF814A0FEF766FF40463946CDE902545E
:101EA0000494FEF75FFFF02002A931C14046394695
:101EB000FEF758FF48463946CDE90255CDE9044AB8
:101EC000FEF750FF06B0BDE8F087000080B540F295
:101ED000500045F20041C2F20000C4F2000148F295
:101EE000A06200234FF4804CC0F2010280E80E0093
:101EF000C0E9033CC0E90533C0E90733FFF742F806
:101F0000002808BF80BDFEF791FC0000FEE700003E
:101F1000FEE7000000F0070080F00703042B28BF55
:101F200004234FF0FF3C03380CFA03F338BF0020C2
:101F3000994381400CFA00F022EA00000843704700
:101F40007047000081B040F20000C2F2000000685B
:101F500044F6D351C1F26201A0FB0101480A00908E
:101F600000BF0098411E00280091F9D101B07047D0
:101F700070470000B0B501380024B4EB106F1CBFEF
:101F80000120B0BD4EF21005CEF2000568604FF0A2
:101F9000FF300F2100F054F80720AC602860204685
:101FA000B0BD000080B5FFF783F980BD70B594B077
:101FB0000AAC20462821FEF7BCF801200A900E90BA
:101FC0004FF4E01000254FF4803102261390204694
:101FD0000995CDE90755CDE90555CDE90355CDE97D
:101FE0000155CDE90B15CDE91161FFF7F3FBC0B940
:101FF0000F20CDE905064FF48060CDE9080505A85E
:1020000002210795FFF7D2FA58B9022001904FF448
:102010000040039001A8FFF745FA002804BF14B060
:1020200070BDFEF703FC000070470000FEE70000F3
:102030004EF60C50CEF200000068C0F3022070474C
:102040004EF6145300F00F02CEF2000309011A44B9
:1020500000F16043B0F1FF3FC8BF03F56442117067
:10206000704700004EF60C51CEF200010A684FF6A0
:10207000FF031A4060F30A2242F0806040F0FD70D6
:10208000086070472DE9F04381B040F2100040F243
:10209000200540F21106C2F200000127C2F200053D
:1020A000C2F200060024077028463470FEF7D6FD01
:1020B00028466421FEF70CFD08B1347023E0377028
:1020C00040F2200840F2140940F218070025C82603
:1020D000C2F20008C2F2000940F6E444C2F200076E
:1020E0004046FEF731FCC9F800006043010B013E99
:1020F00005EB10353960F3D148F21F50C5F2EB10F3
:10210000A5FB00018C09204601B0BDE8F08300006A
:1021100086B0FFF7DBF8FFF749FFFFF76BFEFFF72D
:10212000D5FEFFF73BFE00F031F900F0BDF840F2BC
:10213000A406C2F20006306880F00100306000F0B2
:102140001DFC43F64060C0F6000003C840F2A8053D
:10215000CDE9031043F65060C0F6000090E801019D
:102160000027059043F64860C0F6000003C8C2F29D
:102170000005CDE9011009E03020002145A202232D
:1021800000F0A0F94FF49670FEF7D8FD00F02EFA9B
:1021900030680128F6D1FFF775FF40F21101C2F255
:1021A000000109780029E7D0FEF702F946F644124B
:1021B0004CF68513CFF26F02C3F6D473FEF76BF8BB
:1021C0004BF2FF2245F2B003CFF27B22CBF6D7735E
:1021D000FDF7BAFF814640F2C800C2F20000D0E924
:1021E000002348468A46FEF750F80022002300F0FC
:1021F00057F883460C46284620A15A46234600F04D
:1022000023FC302000212A46022300F05BF940F233
:102210001C00C2F200000068059A4346AF83C5E97E
:102220000077C5E90277C5E90477AF6128B1DDE938
:102230000332012818BFDDE9013258462146FEF776
:102240002AF802460B4628460FA100F0FDFB30207D
:1022500002212A46022300F035F942F200034846E3
:1022600051460022C4F28C03FEF787F810B900F043
:10227000A9F987E700F0D4FB84E700BF252E316C75
:102280006620672020000000252E326C662020206A
:10229000000000006164635F6661696C000000001B
:1022A00080B501F053F880BDB0B50024A4F1500012
:1022B000C0B200F01DF80020002500F019F8102031
:1022C00000F016F8002000F02BF8681C45B2B5F1BC
:1022D000FF3FF7DCE0B20134072828BFB0BDE5E7D7
:1022E00080B502A2022300F0EDF880BD202000009E
:1022F00080B584B08DF80F0001200DF10F01CDE9FC
:10230000001040F250004FF0640CC2F2000078213F
:1023100000220123CDF808C0FEF700FF04B080BD05
:1023200080B584B08DF80F0001200DF10F01CDE9CB
:10233000001040F250004FF0640CC2F2000078210F
:1023400040220123CDF808C0FEF7E8FE04B080BDAE
:1023500070B50446002500BFA5F15000C0B2FFF7DC
:10236000C7FF00200026FFF7C3FF1020FFF7C0FFC4
:102370002046FFF7D5FF701C46B2B6F1FF3FF7DCF1
:10238000E8B20135072828BF70BDE5E780B56420B5
:10239000FEF7D4FCAE20FFF7ABFF2020FFF7A8FF2D
:1023A0001020FFF7A5FFB020FFF7A2FFC820FFF71E
:1023B0009FFF0020FFF79CFF1020FFF799FF4020B0
:1023C000FFF796FF8120FFF793FFFF20FFF790FFB5
:1023D000A120FFF78DFFA620FFF78AFFA820FFF7B7
:1023E00087FF3F20FFF784FFA420FFF781FFD32062
:1023F000FFF77EFF0020FFF77BFFD520FFF778FF78
:10240000F020FFF775FFD920FFF772FF2220FFF7BA
:102410006FFFDA20FFF76CFF1220FFF769FFDB2068
:10242000FFF766FF2020FFF763FF8D20FFF760FFB7
:102430001420FFF75DFFAF20FFF75AFF0020FFF7E2
:1024400087FF80BD10B50446A1F15000C0B2FFF770
:102450004FFF20091030FFF74BFF04F00E00013052
:10246000FFF746FF10BD00002DE9F0410D46044680
:1024700040B2002844BF02350024E9B22046164687
:10248000FFF7E0FF43F6BE30C0F6000000EB461851
:10249000A8F10107102600BF17F8010FFFF740FF52
:1024A000013EF9D1681CC1B22046FFF7CBFF08F10D
:1024B0000F04102514F8010FFFF732FF013DF9D189
:1024C000BDE8F0812DE9F04F81B090468A46012B9E
:1024D000064649D0022B71D198F8000000286DD033
:1024E00043F2CE590024C0F60009CDF8008000BFA9
:1024F000A0F12005F0B2782884BF0AF1010A002675
:10250000F7B25FFA8AF13846FFF79CFFE8B24FEA6C
:10251000001BC84609EB00154FF0FF3905EB090019
:102520004078FFF7FDFE09F10109B9F1070FF5D178
:102530000AF10100C1B23846FFF784FF08EB0B0037
:10254000C146C51D082700BF15F8010FFFF7E8FEBB
:10255000013FF9D10134DDF80080E0B218F8000045
:1025600008360028C4D129E098F8000030B343F2BF
:10257000A6390024C0F60009A0F12005F0B27E289B
:1025800084BF0AF1010A00265FFA8AF1F0B2FFF770
:1025900059FFE8B200EB400009EB40054FF0FF3770
:1025A000E8194078FFF7BCFE0137052FF8D1013458
:1025B000E0B218F8000006360028DDD101B0BDE811
:1025C000F08F000080B540F2C600C2F20000017832
:1025D000002918BF80BD0121017040F60040C4F2FF
:1025E000010001210122FEF7C1FC80BDB0B540F61B
:1025F0000004C4F2010420460121FEF7B1FCF0B949
:1026000020460121FEF7ACFCC8B920460121FEF7A7
:10261000A7FC68B904F5006528464FF40051002274
:10262000FEF7A4FC20460121FEF79AFC0028F3D017
:1026300004F500604FF400510122FEF797FC20469C
:102640002021FEF78DFC80BB20462021FEF788FC70
:1026500058BB20462021FEF783FC68B904F50065CD
:1026600028464FF400510022FEF780FC204620212E
:10267000FEF776FC0028F3D004F500604FF400511B
:102680000122FEF773FC40F2A405C2F2000528689F
:1026900080F001002860FFF707FE2868012802D1BA
:1026A00000F06CF901E000F0D9F820464021FEF777
:1026B00057FCC8BB20464021FEF752FCA0BB204679
:1026C0004021FEF74DFC68B904F5006528464FF43B
:1026D00000510022FEF74AFC20464021FEF740FC54
:1026E0000028F3D004F500604FF400510122FEF7FA
:1026F0003DFC40F2A400C2F200000068012860D056
:1027000040F21C00C2F20000016845F2565201314D
:10271000C5F2555281FB022303EBD37202EB420256
:10272000891A016000F09AF820468021FEF718FC13
:10273000002841D120468021FEF712FCE0BB204654
:102740008021FEF70DFC68B904F5006528464FF4BA
:1027500000510022FEF70AFC20468021FEF700FC13
:102760000028F3D004F500604FF400510122FEF779
:10277000FDFB40F2A400C2F200000068012820D056
:1027800040F21C00C2F20000016845F256520139C5
:10279000C5F2555281FB023505EBD57303EB4303BC
:1027A000C91A033181FB022303EBD37202EB42020D
:1027B000891A016000F052F820461021FEF7D0FB84
:1027C00000B1B0BD20461021FEF7CAFB0028F8D1A9
:1027D00020461021FEF7C4FB70B904F5006500BF68
:1027E00028464FF400510022FEF7C0FB204610217E
:1027F000FEF7B6FB0028F3D004F500604FF400515B
:102800000122FEF7B3FB40F2A400C2F20000006810
:10281000002808BFB0BDFFF735FCFDF7C9FD46F63F
:1028200044124CF68513CFF26F02C3F6D473FDF752
:1028300032FD4BF2FF2245F2B003CFF27B22CBF602
:10284000D773FDF781FC00220023FFF729FD40F23A
:10285000C802C2F20002C2E90001B0BD70B500209A
:10286000002100220024FFF7FFFD1020002101229B
:10287000FFF7FAFD2020002102220225FFF7F4FDD8
:10288000302000210322FFF7EFFD40200021042229
:10289000FFF7EAFD05EB4400C1B20020E6B2FFF706
:1028A0001FFD022E04F10104F4D340F21C00C2F219
:1028B00000000078022101EB4000C1B20020132289
:1028C000FFF7D2FD102002210522FFF7CDFD2020C9
:1028D00002210622FFF7C8FD302002210422FFF763
:1028E000C3FD402002210D22FFF7BEFD1DA2502096
:1028F00002210223FFF7E6FD102004210722FFF743
:10290000B3FD202004210822FFF7AEFD3020042172
:102910000422FFF7A9FD402004210D22FFF7A4FDAA
:1029200012A2502004210223FFF7CCFD1020062123
:102930000922FFF799FD202006210A22FFF794FDC6
:10294000302006210B22FFF78FFD402006210C22AC
:10295000FFF78AFD07A2502006210223FFF7B2FDF0
:1029600070BD00BF322E30302F670000322E353060
:102970002F670000302E35302F67000080B5002013
:1029800000210E22FFF770FD102000210F22FFF71B
:102990006BFD202000210422FFF766FD00200221AC
:1029A0001022FFF761FD102002211122FFF75CFDCC
:1029B000202002210422FFF757FD40F21C00C2F242
:1029C0000000006801280BD0A8B9242004210522AA
:1029D000FFF74AFD342004210622FFF745FD80BDA4
:1029E000242004210722FFF73FFD34200421082280
:1029F000FFF73AFD80BD242004210922FFF734FDB2
:102A0000342004210A22FFF72FFD442004210B2249
:102A1000FFF72AFD542004210C22FFF725FD80BD7D
:102A200080B540F2C600C2F200000178002908BF5C
:102A300080BD0021017040F60040C4F20100012178
:102A40000022FEF793FA80BD0FB4084B10B504A91D
:102A500002AA039800F0DEF8044602A9002000F064
:102A600070FC204610BC5DF814FB000043330008E6
:102A700002E008C8121F08C1002AFAD17047704747
:102A8000002001E001C1121F002AFBD170470000A5
:102A90002DE9FF5F82B00021DDE90430020DDDF891
:102AA00040B0034318D044F61050A2F2FF32424324
:102AB0001514119801281FD0A5EB0B00401C5FEAEC
:102AC000000A4FF000064E4FDFF83891B0465046EE
:102AD00015D5CAF1000413E0119801244AA3012876
:102AE00001D16FEA0B010298119AC0E90031C0E9E7
:102AF000024206B0BDE8F09FCBF10000DFE70446DC
:102B00000021404A491842EB0450CDE9001012E080
:102B1000E00707D032463B4640464946FDF7BBFB3F
:102B20008046894632463B4610461946FDF7B3FBC0
:102B300006460F466410002CEAD1DDE90401DDE908
:102B40000023BAF1000F06DAFDF7A5FB42464B461B
:102B5000FDF7A1FB05E0FDF7FDFC42464B46FDF706
:102B6000F9FC04460E460022284BFDF77BFD03D8F6
:102B70004FF0FF30014607E00022254B204631464A
:102B8000FDF7E2FAFDF755FD102409E0002C0ADB01
:102B90000A220023FDF72FFC039B30321A55641ED6
:102BA00050EA0102F2D1641C039AC4F111031444E7
:102BB000119A012A03D0012208430DD10AE00843EB
:102BC00004D000204FF0110B119072E7A3EB0B051E
:102BD0006D1E0DE05B4504DD4FF0000205F10105BF
:102BE00004E003DA4FF00002A5F10105002AECD061
:102BF00002981199C0E90231C0E9004579E7000067
:102C0000000014400000F03F300000000000F043DE
:102C10000000E03F2DE9FF4F95B09B4689460646F0
:102C200000250FE2252877D100242746F84A012104
:102C3000059400E0044316F8013F203B01FA03F03D
:102C40001042F7D130782A2811D06FF02F03307856
:102C5000A0F13002092A16D8059A44F0020402EBCA
:102C6000820203EB42021044761C0590EFE759F80C
:102C7000042B0592002A03DA504244F400540590D4
:102C800044F00204761C30782E2816D116F8010F75
:102C900044F004042A280DD06FF02F023078A0F100
:102CA0003003092B09D807EB870302EB4303C7184E
:102CB000761CF3E759F8047B761C30786C280FD02B
:102CC00006DC4C2817D068280DD06A2814D104E0FF
:102CD000742810D07A280FD10DE044F400140AE0D3
:102CE00044F4801401E044F440147278824202D12A
:102CF00004F58014761C761C307866280BD013DC23
:102D0000582877D009DC002875D04528F6D0462809
:102D1000F4D047281AD19DE118E0632835D0642803
:102D200079D0652812D195E1702873D008DC672826
:102D3000F1D069286FD06E280DD06F2806D1B5E08C
:102D400073282CD0752875D0782874D05A461799D6
:102D500090476D1C75E1C4F30250022809D0032886
:102D60000DD0D9F8001004280DD00D6009F1040928
:102D700067E1D9F80010EA17C1E90052F6E7D9F87F
:102D800000100D80F2E70D70F0E719F8041B8DF8C4
:102D9000001000208DF80100EA46012003E059F8F8
:102DA00004AB4FF0FF3061074FF0000102D40DE09B
:102DB00008F101018846B9420FDA8045F8DB1AF8BC
:102DC00008100029F4D108E008F101018846814289
:102DD000FADB1AF808100029F6D105985B46A0EB3B
:102DE000080721463846179A00F094FA284400EB69
:102DF000080507E04DE029E10DE01AF8010B5A46FD
:102E000017999047B8F10108F7D25B46214638463A
:102E1000179A13E142E00A220092C4F302524FF0E3
:102E2000000A022A08D059F804CB032A4FEAEC71B1
:102E30000AD00DE029E02AE009F1070121F007029C
:102E4000F2E802C1914609E00FFA8CFC4FEAEC71FE
:102E5000042A03D14FFA8CFC4FEAEC71002907DAFF
:102E60000A460021DCF1000C61EB02012D2202E098
:102E7000220504D52B228DF80420012203E0E2076D
:102E800001D02022F7E7904659E00A2102E0102203
:102E90000DE010214FF0000A00910BE010224FF0DE
:102EA000000A44F004040827009203E008224FF0CF
:102EB000000A0092C4F30252022A05D059F804CB4A
:102EC0000021032A08D009E009F1070121F00702D7
:102ED000F2E802C1914605E01FFA8CFC042A01D1F8
:102EE0000CF0FF0C4FF00008220728D5702806D000
:102EF000009B83F0100353EA0A0305D00EE0402242
:102F00008DF80420012208E05CEA010206D030229C
:102F10008DF804208DF8050002229046009B83F076
:102F2000080353EA0A030AD15CEA010201D16207ED
:102F300005D530228DF804204FF001087F1E582857
:102F400004D034A003900EA802900DE036A0F9E75B
:102F500053466046009AFDF74EFA84460398825C19
:102F60000298401E029002705CEA0100F0D10298C3
:102F700006A9081A00F1200A600702D524F480345B
:102F800000E00127574502DDA7EB0A0000E0002022
:102F900000EB0A01009005984144401A0590E003B7
:102FA00006D45B462146179A059800F0B3F905440C
:102FB000002706E001A85A46C05D179990476D1C8E
:102FC0007F1C4745F6DBE0030CD55B462146179A8C
:102FD000059800F09FF9054404E030205A461799FF
:102FE00090476D1C0099481E00900029F5DC08E010
:102FF000029802995A460078491C02911799904705
:103000006D1CBAF10001AAF1010AF1DC65E10000D2
:1030100009280100303132333435363738396162AE
:103020006364656600000000303132333435363772
:1030300038394142434445460000000000F058F949
:103040000544761C307800287FF4ECAD19B0284692
:10305000BDE8F08F620700D4062709F1070222F0CD
:10306000070CFCE80223E14603F000485FEA080C85
:1030700002D00FF2702C0DE05FEA045C02D50FF273
:10308000682C07E05FEAC47C02D00FF2602C01E0FC
:10309000AFF2700C4FF0FF3823F00043CDF850C072
:1030A00065280CD006DC452809D046281DD04728C5
:1030B0003DD13DE0662818D067287ED138E0002158
:1030C000112F01DB112000E0781CCDE9000106A9D9
:1030D0000EA8FFF7DDFCDDE90F010E9A0391002138
:1030E000009207F1010A04914DE04FF00040009773
:1030F000CDE9011006A90EA8FFF7CAFCDDE90F0211
:1031000003920E9B11990022DDF80CA0009304920B
:1031100011B9791C00EB010AB7EB0A0004D4C0F125
:10312000FF3007F1010A0490AAEB0700019044E088
:10313000012F00DA01270021112F01DD112000E00D
:103140003846CDE9000106A90EA8FFF7A1FCDDE98C
:103150000F010E9A0391002104910092BA462107B3
:103160000CD40399514500DA8A46BAF1010F05DD06
:10317000009AAAF10101515C302908D0B84202DA64
:1031800010F1040F06DA0121CDE9011015E0AAF1D2
:103190000101E9E7002805DC049901440491AAEB48
:1031A000000102E0411C514500DD8A460499401AA5
:1031B000401C01904FF000400290200704D4019879
:1031C000504501DBCDF8048000208DF84F000298B7
:1031D0000DF14F07B0F1004F25D02B200E90029833
:1031E0004FF0020800280CDA404202902D200E9089
:1031F00007E00A210298FDF7E8F83031029007F85D
:10320000011DB8F10001A8F10108F2DC02980028C4
:10321000EFD1791E0E980870307800F0200040F051
:10322000450007F8020D12A8C01B00F1070814980A
:10323000007800B1012000EB0A01019801EBE07178
:1032400005984144401A401E0590E00306D45B46B1
:103250002146179A059800F05DF805441498007807
:1032600018B15A46179990476D1CE00324D55B4668
:103270002146179A059800F04DF805441CE0049883
:10328000002807DBDDE90301884203DD0098405C8C
:10329000179901E0179930205A469047049805F194
:1032A0000105401C04900198401E019004D12E207D
:1032B0005A46179990476D1CBAF10001AAF1010A0C
:1032C000DDDC05E017F8010B5A46179990476D1C95
:1032D000B8F10001A8F10108F4DC5B462146179A19
:1032E0000598ABE62D0000002B0000002000000038
:1032F0002DE9F041044600251E461746880404D4F3
:1033000005E039462020B0476D1C641EF9D52846DB
:10331000BDE8F0812DE9F041044600251E469046A7
:10332000C80301D5302700E02027880404D505E034
:1033300041463846B0476D1C641EF9D52846BDE8A5
:10334000F0810A68531C0B60107070472DE9F04142
:1033500014461D4606460F46FDF79CF900F07040E6
:10336000B0F1005F0FD0201C18BF0120284320F0CF
:103370000040C0F17F6000F1E040C00F02BF204676
:103380002946BDE8F08130463946BDE8F0810000AD
:103390000000000000000102030406070809000005
:1033A0000000010203040000000000000000002FE4
:1033B000000000000700070000147F147F140024A1
:1033C0002A7F2A12006264081323003649552250CE
:1033D00000000503000000001C2241000000412203
:1033E0001C000014083E08140008083E08080000ED
:1033F00000A06000000808080808000060600000E5
:10340000002010080402003E5149453E0000427F62
:103410004000004261514946002141454B310018AE
:1034200014127F10002745454539003C4A49493070
:10343000000171090503003649494936000649492A
:10344000291E000036360000000056360000000835
:103450001422410000141414141400004122140812
:1034600000020151090600324959513E007C1211F7
:10347000127C007F49494936003E41414122007F8C
:103480004141221C007F49494941007F0909090146
:10349000003E4149497A007F0808087F0000417FCB
:1034A0004100002040413F01007F08142241007F7D
:1034B00040404040007F020C027F007F0408107FE4
:1034C000003E4141413E007F09090906003E41514D
:1034D000215E007F0919294600464949493100010A
:1034E000017F0101003F4040403F001F2040201F5E
:1034F000003F4038403F0063140814630007087021
:10350000080700615149454300007F4141000055D3
:103510002A552A55000041417F000004020102049F
:10352000004040404040000001020400002054548C
:103530005478007F484444380038444444200038DC
:103540004444487F00385454541800087E0901024E
:103550000018A4A4A47C007F080404780000447D23
:103560004000004080847D00007F1028440000005F
:10357000417F4000007C04180478007C0804047833
:1035800000384444443800FC24242418001824241F
:1035900018FC007C0804040800485454542000041B
:1035A0003F444020003C4040207C001C2040201C28
:1035B000003C4030403C004428102844001CA0A09F
:1035C000A07C004464544C441414141414140000DB
:1035D00000000000000000000000000000000000EB
:1035E00000F8000000000000003330000000001070
:1035F0000C06100C0600000000000000000040C097
:103600007840C0784000043F04043F040400007088
:1036100088FC08300000001820FF211E0000F00880
:10362000F000E018000000211C031E211E0000F025
:103630000888700000001E2123241927211010166D
:103640000E0000000000000000000000000000006C
:1036500000E01804020000000007182040000002EB
:103660000418E0000000004020180700000040405F
:1036700080F0804040000202010F010202000000C1
:1036800000F0000000000101011F01010100000025
:1036900000000000000080B070000000000000008A
:1036A0000000000000000001010101010101000013
:1036B00000000000000000303000000000000000AA
:1036C000000080601804006018060100000000E09F
:1036D00010080810E000000F102020100F0000104C
:1036E00010F8000000000020203F202000000070A3
:1036F000080808887000003028242221300000309B
:103700000888884830000018202020110E00000092
:10371000C02010F8000000070424243F240000F813
:103720000888880808000019212020110E0000E0F8
:10373000108888180000000F112020110E0000389A
:103740000808C83808000000003F000000000070B2
:10375000880808887000001C222121221C0000E03B
:1037600010080810E0000000312222110F000000B4
:1037700000C0C00000000000003030000000000069
:1037800000800000000000008060000000000000D9
:103790008040201008000001020408102000404072
:1037A00040404040400004040404040404000008B5
:1037B000102040800000002010080402010000706A
:1037C00048080808F0000000003036010000C03052
:1037D000C828E810E0000718272423140B00000075
:1037E000C038E0000000203C23020227382008F8FF
:1037F000888888700000203F202020110E00C030F3
:10380000080808083800071820202010080008F8C9
:1038100008080810E000203F202020100F0008F8C2
:103820008888E8081000203F20202320180008F88E
:103830008888E8081000203F200003000000C03006
:1038400008080838000007182020221E020008F887
:1038500008000008F808203F210101213F2000084E
:1038600008F8080800000020203F20200000000089
:103870000808F8080800C08080807F00000008F871
:1038800088C028180800203F20012638200008F8AA
:10389000080000000000203F20202020300008F811
:1038A000F800F8F80800203F003F003F200008F82B
:1038B00030C00008F808203F200007183F00E01043
:1038C00008080810E0000F10202020100F0008F852
:1038D00008080808F000203F210101010000E01065
:1038E00008080810E0000F18242438504F0008F88A
:1038F000888888887000203F2000030C30200070EA
:103900008808080838000038202121221C001808E7
:1039100008F8080818000000203F2000000008F800
:1039200008000008F808001F202020201F00087849
:10393000880000C83808000007380E010000F808A9
:1039400000F80008F800033C0700073C03000818D3
:1039500068808068180820302C03032C3020083839
:10396000C800C83808000000203F200000001008F0
:103970000808C83808002038262120201800000038
:1039800000FE020202000000007F40404000000CE8
:1039900030C000000000000000010638C000000236
:1039A0000202FE000000004040407F0000000000D6
:1039B00004020202040000000000000000000000F9
:1039C00000000000000080808080808080800002F5
:1039D00002040000000000000000000000000000E1
:1039E0008080808000000019242222223F2008F8D5
:1039F000008080000000003F112020110E00000018
:103A0000008080800000000E1120202011000000A6
:103A100000808088F800000E112020103F20000058
:103A2000808080800000001F22222222130000805C
:103A300080F0888888180020203F202000000000A7
:103A4000808080808000006B94949493600008F8DC
:103A5000008080800000203F210000203F20008067
:103A60009898000000000020203F20200000000067
:103A700000809898000000C08080807F000008F8D7
:103A8000000080808000203F24022D3020000008AC
:103A900008F8000000000020203F20200000808067
:103AA000808080808000203F20003F20003F808079
:103AB000008080800000203F210000203F20000087
:103AC000808080800000001F202020201F00808038
:103AD00000808000000080FFA12020110E00000067
:103AE000008080808000000E112020A0FF80808058
:103AF00080008080800020203F2120000100000005
:103B000080808080800000332424242419000080D9
:103B100080E0808000000000001F202000008080E6
:103B2000000000808000001F202020103F208080A7
:103B300080000080808000010E3008060100808037
:103B40000080008080800F300C030C300F0000805C
:103B50008000808080000020312E0E312000808087
:103B600080000080808080818E70180601000080B7
:103B70008080808080000021302C222130000000D5
:103B80000000807C020200000000003F4040000076
:103B90000000FF00000000000000FF000000000225
:103BA000027C800000000040403F00000000000652
:103BB00001010202040400000000000000000000F7
:103BC000F8494A4C48F8484C4A49F800000010109F
:103BD0001312121212FF1212121213101000008090
:103BE00060F8074020900C030C902040400001003A
:103BF00000FF0080601F000000FF00000000404048
:103C000042CC00504EC8487FC848484000000040A1
:103C1000201F20504C4340404F50505C400010103B
:103C2000FF100082864A52A2524A86808000428259
:103C30007F010010121212FF121212100000000079
:103C40000000000000000000000000000000000074
:103C500036360000000000000000000000000202F4
:103C6000E22222FE222222FE2222E20202000000A2
:103C7000FF484443404040434444FF0000000000EC
:103C800000FC0404FC040202FE0302000000806049
:103C9000180700007F201408310E304080000424F3
:103CA00024A42F2424E424242FA42424040008087A
:103CB00008080B0808FF08080A090808080000009F
:103CC00000FE929292FE929292FE00000000444406
:103CD0002425140C04FF040C1425244444008040C3
:103CE000301E101010FF1010101010100000404077
:103CF00042424242427F4242424242404000000031
:103D000000FC0404FC040202FE03020000008060C8
:103D1000180700007F201408310E304080008041D9
:103D2000211D214141FF4949494949434000004083
:103D3000C05F4949497F4949494F60C000008082BE
:103D40008282828282E2A2928A8682808000000041
:103D500000000040807F0000000000000000000024
:103D60000004081020C0201008040000000000001B
:103D700000000202027F0202020000000000101098
:103D800014D4545454FC525252D3121010004040D8
:103D900050575555557F5555555750404000202098
:103DA00020BEAAAAAAAAAAAAAABE202020000080F1
:103DB00080AFAAAAAAFFAAAAAAAF8080000000002A
:103DC00000F112141010101412F100000000403025
:103DD00000033941414559414173000830000080DA
:103DE00060F8074020900C030C9020404000010038
:103DF00000FF0080601F000000FF00000000202086
:103E0000222222E2222222E22222222020008040BC
:103E100020100C030000003F4040404078000000AC
:103E20000000000000000000000000000000000092
:103E3000000000000003030000000000000000007C
:103E40000000000000000440000000000000E03F0F
:103E50000000000000000040783E00080000002044
:103E600010000000702A0008883E000810000020A2
:103E7000C8040000802A00080024F40001000000AB
:083E800010000000000000002A
:04000005080000ED02
:00000001FF
