:020000040800F2
:10000000C8040020050100085B1700080914000857
:100010005917000871020008DF17000800000000EF
:100020000000000000000000000000005F17000852
:1000300073020008000000005D1700086117000847
:100040001F0100081F0100081F0100081F01000810
:100050001F0100081F0100081F0100081F01000800
:100060001F0100081F0100081F0100081F010008F0
:100070001F0100081F0100081F0100081F010008E0
:100080001F0100081F0100081F0100081F010008D0
:100090001F0100081F0100081F0100081F010008C0
:1000A0001F0100081F0100081F0100081F010008B0
:1000B0001F0100081F0100081F0100081F010008A0
:1000C0001F0100081F0100081F0100081F01000890
:1000D0001F0100081F0100081F0100081F01000880
:1000E0001F0100081F0100081F010008DFF810D0E1
:1000F00000F042F800480047ED190008AFF3008017
:10010000C80400200648804706480047FEE7FEE78F
:10011000FEE7FEE7FEE7FEE7FEE7FEE7FEE7FEE7B7
:10012000DD170008ED000008D2B201E000F8012B55
:10013000491EFBD270470022F6E710B513460A4667
:1001400004461946FFF7F0FF204610BD30B50B46B8
:10015000014600202022012409E021FA02F59D42F7
:1001600005D303FA02F5491B04FA02F52844151ECB
:10017000A2F10102F1DC30BD064C074D06E0E0685B
:1001800040F0010394E8070098471034AC42F6D3DE
:10019000FFF7B0FF582B0008782B000870B5044615
:1001A00000688168C943C90717D1816821F001013E
:1001B000816000F0A5FB05460AE000BF00F0A0FB4F
:1001C000401B022804D920688068C043C00706D0BD
:1001D00020688068C043C007F0D0002070BDA06ACE
:1001E00040F01000A062E06A40F00100E0620120EF
:1001F00070BD0000F8B500260446009600688168CE
:10020000C943C9072DD0816841F0010181601648BA
:1002100016490068B0FBF1F000E0401E0090002895
:10022000FBD100F06DFB054616E000BF00F068FB57
:10023000401B022810D920688068C043C0070BD03B
:10024000A06A40F01000A062E06A40F00100E062A5
:1002500084F824600120F8BD20688068C043C0078E
:10026000E4D10020F8BD00001400002040420F003F
:10027000FEE77047F8B50024009490F82420254646
:10028000012A12D0012280F824204A681F23072A5D
:100290000DD20668776B521E02EB820293409F4399
:1002A0000B6893401F43776319E00220F8BD06688E
:1002B0000D2A0AD2376BD21F02EB820293409F4372
:1002C0000B6893401F43376309E0F76A0D3A02EB6E
:1002D000820293409F430B6893401F43F7620A6872
:1002E000072306680A2A0AD3F7680A3A02EB420291
:1002F00093409F438B6893401F43F76008E0376942
:1003000002EB420293409F438B6893401F43376147
:100310000A68102A01D0112A20D1124B02689A4291
:1003200017D193681B0219D4936843F400039360B8
:100330000968102912D10C490C4A0968B1FBF2F185
:1003400001EB8101490000E0491E00910029FBD129
:1003500004E0816A41F020018162012480F8245088
:100360002046F8BD002401401400002040420F0048
:100370000068C06C704700002DE9F0414FF00007A5
:1003800004003D467ED0A06A002628B9E66284F8C3
:100390002460204600F07EF82046FFF7FFFEA16AA9
:1003A000C90600D420B1A06A40F01000A06269E044
:1003B000A16A21F4885141F00201A1626268E169F9
:1003C000237B0A4347EA43010A43A1684FF480773D
:1003D000B94209D0012907D05FF0000194F814C098
:1003E000BCF1010F02D00AE03946F7E7F3B1A36A86
:1003F00043F02003A362E36A43F00103E36223684E
:10040000D3F804C02CF4694C4CEA010CC3F804C0C6
:1004100021688B68DFF870C003EA0C0313438B601C
:10042000A168B9420BD0012909D00CE0DFF85CC00B
:10043000A3690CEB43330B4343F40061DFE7218AEC
:100440000D05A5F580152168CB6A23F470032B43B5
:10045000CB62216889680E4B1940914208D1E6624F
:10046000A16A21F0020141F00101A162BDE8F08121
:10047000A06A20F0020040F01000A062E06A40F0A4
:100480000100E0620120F1E7FDF7E1FF00E0FFFF7E
:10049000FE0E1FFF00B585B0002100910191029171
:1004A000039100680E49884218D10E48816941F4D1
:1004B00000718161816901F400710491816941F0E9
:1004C000040181618069694600F004000490022003
:1004D000009003200190044800F018F905B000BD19
:1004E0000024014000100240000801402DE9F843BB
:1004F00000270D460446009700F002FA8046206867
:100500008168C90508D5A06A40F02000A06284F87F
:1005100024700120BDE8F8834168C90503D4C06A8E
:1005200010F4700F2AD0022000F004FC3B49096847
:10053000B1FBF0F62068036939490B424FEA6101CB
:100540004FEAA1121FD1C3684FEA611C13EA0C0FD6
:1005500019D103690B4225D1C068104222D1142061
:1005600023E0681C0AD02DB100F0CAF9A0EB080006
:10057000A84203D920680068800725D52068006854
:100580008007EED52DE003690B4202D1C16811420C
:1005900006D0026923490A4206D1C068084203D145
:1005A000542002E0292000E0FC204643009816E099
:1005B000681C11D02DB100F0A3F9A0EB0800A842EF
:1005C0000AD90098B04207D2A06A40F00400A062A5
:1005D00084F8247003209DE70098401C0090B042EE
:1005E000E6D321686FF012000860A06A40F4007042
:1005F000A06220688068C0F3424007280CD1207BAD
:1006000050B9A06A20F48070A062A06AC00403D42C
:10061000A06A40F00100A06200207BE714000020E7
:10062000244992244992240070B5044690F824008D
:1006300001280DD0012084F824002046FFF7DAFDC0
:1006400002004FF0000005D084F82400104670BD71
:10065000022070BDA16A40F20123994341F48071E8
:10066000A1621F4D23681F49AB4218D10E6816F4D2
:10067000702F14D0A66A46F48016A6620E6876051E
:1006800005D5A66A26F4005646F48056A662A66AE8
:10069000F6040AD5E66A26F00606E66206E0A66AD1
:1006A00026F48016A6625E68E9E7E06284F824001A
:1006B0006FF00200186020688368C3F34243072B81
:1006C00005D1A84208D1096811F4702F04D08168BF
:1006D00041F480118160B9E7816841F4A001F9E734
:1006E000002801400424014070B5044600F008F9D8
:1006F0000546601C02D004480078044400F000F96C
:10070000401BA042FAD370BD080000202DE9F84F2D
:10071000DFF8B891002409F1040A0AF1040B23461A
:100720000F270BF1040EC9E00125A5402A40AA427B
:100730007DD1674ED1F804C0ACEB0608B44532D089
:1007400014DCBCF1030F3AD009DCBCF1000F2AD055
:10075000BCF1010F1CD0BCF1020F31D11DE0BCF186
:10076000110F17D0BCF1120F2AD119E0B8F5881F6C
:1007700019D006DCB8F5803F15D0B8F5801F1FD121
:1007800011E0B8F5001F0ED0B8F5041F18D10AE02B
:10079000CB6815E0CB681B1D12E0CB6808330FE077
:1007A000CB680C330CE08B682BB1012B4FF00803A6
:1007B00003D0456104E0042302E0056100E000236A
:1007C000FF2A01D8064601E000F104064FEA84053D
:1007D00001D9A5F12005D6F8008007FA05FC28EA22
:1007E0000C0803FA05F548EA0508C6F800804D68CC
:1007F000ED0062D5374DAE6946F00106AE61AD69D8
:1008000024F0030605F001050095334D06EB050CB9
:10081000DCF80850A607360F07FA06F825EA08059F
:10082000DFF8B880404503D14FF0000817E044E0FE
:10083000DFF8AC80404502D14FF001080FE0DFF84F
:10084000A480404502D14FF0020808E0DFF898800C
:10085000404502D14FF0030801E04FF0040808FAC8
:1008600006F848EA0508CCF808804D68D9F8006019
:10087000ED034D4601D5164300E096432E604D68CA
:10088000DAF80060AD03554601D5164300E0964303
:100890002E604D68DBF80060ED025D4601D5164321
:1008A00000E096432E604D68DEF80060AD027546AC
:1008B00001D5164300E096432E60641C0D682A465D
:1008C000E5407FF431AFBDE8F88F0000000401403F
:1008D000000011100010024000000140000801401B
:1008E000000C0140001001400014014080680840E5
:1008F00000D0012070470AB1016170470904FBE78D
:1009000001488068704700000800002070B50400AE
:1009100025D094F83D00002520B984F83C502046AD
:1009200000F050F9242084F83D002068016821F08F
:10093000010101602068016841F400410160206804
:10094000016821F40041016000F064FB4D4A6168D8
:10095000914201D84C4900E04C49884201D2012023
:1009600070BD4B492368B0FBF1F15E6826F03F068D
:100970000E435E606368934206D94FF49673594301
:100980004FF47A73B1FBF3F12368491C1E6A26F019
:100990003F06314319626168914210D84900401EF8
:1009A000B0FBF1F2521CC2F30B02042A01D2042064
:1009B00022E0B0FBF1F0401CC0F30B001CE0A26889
:1009C000F2B301EBC10303EB0116431EB3FBF6F3D5
:1009D0005B1C43F480431B0549D092B301EBC10279
:1009E00002EB0111401EB0FBF1F0401CC0F30B0004
:1009F00040F4804040F400402168CA694CF6FF731F
:100A00009A431043C861D4E9071001432068026883
:100A100022F0C00211430160D4E9030101432068C0
:100A2000826848F2FF339A4311438160D4E905019B
:100A300008432168CA6822F0FF021043C86001E041
:100A40000EE016E02068016841F0010101602564B4
:100A5000202084F83D00256384F83E50002070BDBE
:100A600001EB4106431EB3FBF6F35B1CB3E7012029
:100A7000C2E701EB4101401EB0FBF1F0401CC0F3A6
:100A80000B00B7E7A086010080841E0000093D002E
:100A900040420F002DE9FF4F83B09A46DDE91197E0
:100AA00093460446DDF84080FFF72AFF054694F898
:100AB0003D0020287FD1192301224049204600957E
:100AC00000F034FD002876D194F83C00012872D063
:100AD000012084F83C0020680168C90703D101683F
:100AE00041F0010101602068016821F400610160AA
:100AF000212084F83D00402084F83E000026266432
:100B0000C4F82480A4F82A90608D20852C48E062E7
:100B1000CDE9007553465A462046049900F08CFCF6
:100B200070B930E02A463946204600F07EFD58B1C3
:100B3000206C042804D12068016841F40071016030
:100B4000012007B0BDE8F08F606A21680078086175
:100B5000606A401C6062218D491E89B22185628DC8
:100B6000521E628522685369DB435B070BD469B16F
:100B700000781061606A401C6062208D401E2085F4
:100B8000608D401E6085208D0028CBD12A463946D5
:100B9000204600F0A5FC0028CAD154F83D0B01689E
:100BA00041F400710160202004F81E09E6776677A1
:100BB0000020C6E7FFE70220C3E7000002001000A4
:100BC0000000FFFF10B586B0002100910191029155
:100BD000039100680F4988421AD10F4CA06940F078
:100BE0000800A061A069694600F008000490C020D8
:100BF000009012200190032003900848FFF786FD23
:100C0000E06940F40010E061E06900F40010049035
:100C100006B010BD0054004000100240000C01401E
:100C20000248816802781144816070470800002002
:100C3000074810B5016841F010010160032000F081
:100C400067F8002000F006F800F024F8002010BD3E
:100C50000020024070B50D4D04464FF47A7128789B
:100C6000B1FBF0F00A490968B1FBF0F000F0B8FB05
:100C700048B9102C07D200222146501E00F028F857
:100C800000206C6070BD012070BD000008000020D5
:100C9000140000200C4808B5816941F00101816110
:100CA000816901F001010091C16941F08051C16188
:100CB000C06900F0805000900448416821F0E06174
:100CC00041F00071416008BD001002400000014089
:100CD000F0B40E4B1B680C46C3F30223C3F10705A7
:100CE000042D00D90425191D072901D2002300E095
:100CF000DB1E012606FA05F1491E214099409E405F
:100D0000761E16403143F0BC00F07EBD0CED00E0D5
:100D1000064900F0070208684FF6FF03184040EA52
:100D20000220034A10430860704700000CED00E009
:100D30000000FA0510B529A401461DCC86B08DE847
:100D40001D002AA02A4C006804900020012923D00D
:100D500002293AD010291DD161682268D20119D523
:100D6000C1F38342C9031DF8020009D5616804AAD2
:100D7000C1F34041515C1F4AB2FBF1F1484301E02D
:100D80001D4948436168490204D440005FF00301F3
:100D9000B0FBF1F006B010BD226AC2F301210129B7
:100DA00003D1920701D5C803F4E7022905D1626A8D
:100DB000920702D549F64040ECE70329EAD12168C1
:100DC0008903E7D54FF22440E4E700F033F9616886
:100DD000C1F38131491C4900DAE700000203040530
:100DE000060708090A0B0C0D0E0F10100102000077
:100DF0000010024000127A0000093D002DE9F8437E
:100E000005460078354CC00754D0E0690026C00084
:100E100008D4E06940F08050E061E069012600F00C
:100E2000805000902E480168C90512D401688046A0
:100E300041F480710160FFF763FD074605E000BFE4
:100E4000FFF75EFDC01B642823D8D8F80000C0055A
:100E5000F6D5206A10F4407021D0A98801F44071C1
:100E600081421CD0206A1F49012220F440700A6090
:100E700000220A602062C00711D0FFF741FD07463B
:100E800041F2883808E000BFFFF73AFDC11B414539
:100E900002D90320BDE8F883206A8007F4D5206AD0
:100EA000696820F44070084320621EB1E06920F0B8
:100EB0008050E0612878800705D56068A96820F433
:100EC0004040084360602878C00605D56068E9683E
:100ED00020F48000084360600020DBE7001002403F
:100EE00000700040400442422DE9F0470F460500E3
:100EF00061D0434E306800F00700B84209D2306834
:100F000020F0070038433060306800F00700B84236
:100F100051D128683B4C810712D5400703D5606842
:100F200040F4E06060602878000703D5606840F412
:100F3000605060606068A96820F0F000084360605D
:100F40002878C00728D06868012810D021680228B6
:100F500010D0890700292EDA616821F003010143CE
:100F60006160FFF7CDFC804641F288390DE02168D1
:100F70008903EFE78901EDE7FFF7C2FCA0EB080169
:100F8000494502D90320BDE8F0876068696800F030
:100F90000C00B0EB810FEFD1306800F00700B842D1
:100FA0000BD9306820F0070038433060306800F01B
:100FB0000700B84201D00120E5E72878400705D5B1
:100FC0006068E96820F4E060084360602878000702
:100FD00006D56068296920F4605040EAC10060606D
:100FE00000F038F86168084AC1F30311515CC84049
:100FF0000649086006480068FFF72CFE0020C2E79B
:101000000020024000100240A82000081400002028
:101010000C0000200448054900684968044AC1F3EF
:101020000221515CC84070471400002000100240AB
:10103000B82000080448054900684968044AC1F31B
:10104000C221515CC84070471400002000100240CB
:10105000B820000812A185B00FC98DE80F0014A0B8
:10106000144A006804905168134801F00C03042BE3
:1010700010D0082B0ED1C1F38343C9031DF8030020
:101080000AD5516804AAC1F34041515C0A4A504351
:10109000B0FBF1F005B0704708494843FAE700009B
:1010A00002030405060708090A0B0C0D0E0F1010A9
:1010B000010200000010024000127A0000093D0009
:1010C0002DE9F84F040070D02078C04DC00749D0FA
:1010D0006868C0F38100012807D06868C0F3810008
:1010E000022809D16868C00306D52868800339D56D
:1010F00060680028E7D035E06068B0F5803F0BD02D
:1011000010B1B0F5A02F11D0286820F480302860ED
:10111000286820F4802002E0286840F480302860AD
:10112000606890B1FFF7ECFB06460AE0286840F4DF
:1011300080202860F0E700BFFFF7E2FB801B6428F7
:1011400073D828688003F7D50CE0FFF7D9FB064673
:1011500005E000BFFFF7D4FB801B6428F0D82868A7
:101160008003F7D420789A4E80074FF001094FF0A2
:10117000000839D5686810F00C0F07D06868C0F314
:101180008100022809D16868C00306D42868800756
:1011900014D52069012808D110E02069B0B1C6F843
:1011A0000090FFF7ADFB074605E00AE1FFF7A8FB5B
:1011B000C01B0228C4D828688007F7D52868616951
:1011C00020F0F80040EAC10028600DE0C6F8008079
:1011D000FFF796FB074604E0FFF792FBC01B0228CF
:1011E00023D828688007F7D4207800072CD57948C1
:1011F000A169D9B1C0F80090FFF782FB074604E06F
:10120000FFF77EFBC01B02280FD8686A8007F7D55E
:1012100071484FF4FA510068B0FBF1F0009000BF44
:101220000098411E0091FAD20EE080E0C0F80080E4
:10123000FFF766FB074604E0FFF762FBC01B0228CE
:1012400075D8686A8007F7D42078400760D5E869C8
:101250000027C00008D4E86940F08050E861E869E0
:10126000012700F0805000905C480168C90513D444
:101270000168834641F480710160FFF741FB8246BB
:1012800006E000BFFFF73CFBA0EB0A0064284ED845
:10129000DBF80000C005F5D5E06801280AD008B1E8
:1012A000052813D0286A20F001002862286A20F05F
:1012B000040002E0286A40F001002862E06841F280
:1012C000883B98B1FFF71CFB82460BE0286A40F090
:1012D00004002862EEE700BFFFF712FBA0EB0A0153
:1012E00059455AD8286A8007F6D50CE0FFF708FB65
:1012F000824605E0FFF704FBA0EB0A0159454CD8F4
:10130000286A8007F6D41FB1E86920F08050E861B0
:10131000E06988B36968C1F38101022944D00228D9
:10132000C6F8608004D0FFF7EBFA044638E034E0FA
:10133000FFF7E6FA074604E0FFF7E2FAC01B0228CF
:101340002BD828688001F7D4206AB0F5803F05D1FA
:101350006868A16820F4003008436860D4E9080197
:101360000843696821F4741108436860C6F8609006
:10137000FFF7C6FA044606E025E000BFFFF7C0FA13
:10138000001B022809D828688001F7D51BE000BFA0
:10139000FFF7B6FA001B022802D90320BDE8F88F38
:1013A00028688001F4D40EE00128F7D06868226A2A
:1013B00000F48031914204D1616A00F470108842D7
:1013C00001D00120EAE70020E8E700000010024019
:1013D000000042428004424214000020007000409D
:1013E00010B5401EB0F1807F01D3012010BD4FF039
:1013F000E02460610F21601700F006FA0020A06170
:1014000007202061002010BDFEE701684A69D24331
:1014100052050FD46FF480624A61002140F8301FFA
:10142000202242738173026942F004020261017357
:1014300001207047002070472DE9F84304460068FA
:101440000D46DDE9089701689846164641F480711B
:1014500001604B4600224FF001112046009700F03A
:1014600065F848B120680068C00502D54FF40070E7
:1014700020640320BDE8F883216805F0FE000861C0
:101480003B464A461549204600F084F888B9206852
:101490004169806900903A464946204600F0C5F807
:1014A00048B1206C042804D12068016841F400711F
:1014B00001600120DEE7F5B2B8F1010F09D0216823
:1014C000300A08613A464946204600F0AEF8002846
:1014D000E7D1206805610020CCE700000200010090
:1014E00070B516460D4604460DE02046FFF78DFF09
:1014F00008B1012070BD681C05D0FFF701FA801B00
:10150000A84207D835B120684069C0434007ECD4F1
:10151000002070BD002044F8300F20216173A073BB
:10152000216941F0200121612073E2E72DE9F047B4
:101530001E4690460D460446C1F30747DDF820904D
:1015400008E0701C06D0FFF7DBF9A0EB0900B04201
:101550000FD876B12068012F18D0806925EA0000E5
:101560000004000C14D000214145EAD00020BDE861
:10157000F087002044F8300F20216173A0732169A7
:1015800041F02001216120730120F0E74069E5E787
:101590000121E9E72DE9F0479A4691460E460446B7
:1015A00000254FF02008C1F3074725E02068406977
:1015B000C043400514D42068016841F40071016003
:1015C00021686FF480604861256384F83D8084F869
:1015D0003E50206C40F00400206484F83C501FE032
:1015E000B9F1FF3F08D0FFF78BF9A0EB0A0149459D
:1015F0000CD8B9F1000F09D02068012F13D08069F1
:1016000026EA00000004000C0BD0CFE744F8305F5E
:1016100084F80D80A573206940F0200020612573B7
:101620000120BDE8F0874069EAE770B516460D462F
:1016300004460DE02046FFF7E8FE08B1012070BD2A
:10164000681C05D0FFF75CF9801BA84207D835B1AC
:1016500020684069C0430006ECD4002070BD002023
:1016600044F8300F20216173A073216941F02001FB
:1016700021612073E2E700003EB500241048009489
:10168000019402940D49846001600473047501257E
:1016900005614FF460214460C161FEF76DFE08B141
:1016A00072B6FEE70095CDE9015469460448FEF79D
:1016B000E1FD002801D072B6FEE73EBD00240140E6
:1016C0002000002070B586B00024204800940194CA
:1016D00002940394816941F010018161816901F0F4
:1016E00010010491816941F020018161816901F05B
:1016F00020010491816941F004018161816901F057
:1017000004010491816941F0080181618069104EF2
:1017100000F008004FF4005504900022294630469E
:10172000FFF7E9F80220CDE902400095012569465E
:1017300001953046FEF7EAFFE1208DE83100694669
:101740000448FEF7E3FF06B070BD00000010024041
:101750000010014000080140FEE7FEE770477047B7
:10176000FFF75EBA30B593B028216846FEF7E3FC78
:1017700014210AA8FEF7DFFC002501200F95109523
:101780001195010412958DE8230004904FF4E010A8
:10179000CDE90810022407946846FFF791FC08B1D0
:1017A00072B6FEE70AA90F2081E831004FF480608D
:1017B000CDE90D0502210AA8FFF796FB08B172B624
:1017C000FEE74FF4004011900F940FA8FFF716FBAF
:1017D000002801D072B6FEE713B030BD7047FEE7B7
:1017E0000FB4084B10B504A902AA039800F02CF816
:1017F000044602A9002000F0D1F8204610BC5DF894
:1018000014FB00009D1900080907090E002804DBDD
:1018100000F1E02080F80014704700F00F0000F1A4
:10182000E02080F8141D704702E008C8121F08C1AC
:10183000002AFAD170477047002001E001C1121F51
:10184000002AFBD1704700002DE9FF4F89B09B466D
:101850000446002506E025280BD05A460B999047F0
:10186000641C6D1C20780028F5D10DB02846BDE819
:10187000F08F0027B8460122474900E0074314F8DB
:10188000013F203B02FA03F00842F7D120782E28CE
:1018900019D114F8010F47F004072A280ED06FF071
:1018A0002F022078A0F1300109290CD808EB88011B
:1018B00002EB410100EB0108641CF2E70A98641C8A
:1018C00050F8048B0A9020780028CED0642808D0E5
:1018D000692806D075281ED05A460B9990476D1C72
:1018E00058E00A994FF00A0901C90A91002802DA62
:1018F00040422D2102E0390504D52B218DF820101E
:10190000012103E0F90704D02021F7E78A4608AE59
:101910000DE00021FAE70A994FF00A0901C90A917E
:10192000F7E74946FEF712FC303106F8011D0028A2
:10193000F7D1ADEB060000F12009780701D44FF094
:101940000108C84502DDA8EB090000E00020804640
:10195000002706E008A85A46C05D0B9990476D1C09
:101960007F1C5745F6DB04E030205A460B99904720
:101970006D1CB8F10001A8F10108F5DC05E016F8CE
:10198000010B5A460B9990476D1CB9F10001A9F162
:101990000109F4DC641C65E7092801000A68531C8E
:1019A0000B6010707047000070B50E4C00260125CA
:1019B000267065700C48FEF737FE64210A48FEF772
:1019C00095FD10B12670002070BD25700648FEF709
:1019D000CFFC80B2608040F6E4414843000BA08019
:1019E00070BD00000000002020000020FFF720F95B
:1019F000FFF7B8FEFFF766FE214820494FF480420A
:101A000001602049416000218160C0E90312416109
:101A10008161C1610162FEF779FF08B172B6FEE72C
:101A2000FFF72AFE00F09EF800F03CF8164C206804
:101A300080F00100206000F0EBFA144E00F098F9FD
:101A400020680128FAD1FFF7AFFF0546307888B14A
:101A50000021302000F040F809482A460CA15430FB
:101A6000FFF7BEFE064A022354320021302000F068
:101A700013F9E3E7022308A2F7E70000005400404F
:101A800050000020A08601001C0000200000002063
:101A90002564206D760000006164635F6661696C97
:101AA0000000000070B5002404F1B000C0B200F0E6
:101AB00019F8002000F016F8102000F013F80025A7
:101AC000002000F021F86D1CEDB2802DF8D3641CCD
:101AD000E4B2082CE8D370BD022301A200F0DCB808
:101AE0002020000001B584B0012104A864228DE803
:101AF00007000B46002278210248FEF7CBFF05B015
:101B000000BD00005000002001B584B0012104A8F0
:101B100064228DE807000B46402278210248FEF738
:101B2000B9FF05B000BD00005000002070B50646AA
:101B30005FF0000404F1B000C0B2FFF7D3FF002053
:101B4000FFF7D0FF1020FFF7CDFF00253046FFF74D
:101B5000DBFF6D1CEDB2802DF8D3641CE4B2082CC1
:101B6000E8D370BD10B56420FEF7BEFDAE20FFF7D0
:101B7000B9FF2020FFF7B6FF1020FFF7B3FFB0201A
:101B8000FFF7B0FFC820FFF7ADFF0020FFF7AAFF67
:101B90001020FFF7A7FF4020FFF7A4FF8120FFF7E9
:101BA000A1FFFF20FFF79EFFA120FFF79BFFA620CC
:101BB000FFF798FFA820FFF795FF3F20FFF792FF60
:101BC000A420FFF78FFFD320FFF78CFF0020FFF743
:101BD00089FFD520FFF786FFF020FFF783FFD9208C
:101BE000FFF780FF2220FFF77DFFDA20FFF77AFF63
:101BF0001220FFF777FFDB20FFF774FF2020FFF7AD
:101C000071FF8D20FFF76EFF1420FFF76BFFAF20F1
:101C1000FFF768FFBDE810400020FFF787BF10B551
:101C20000446B031C8B2FFF75DFF102040EA14103F
:101C3000FFF758FF04F00F00BDE8104040F001002E
:101C4000FFF750BF2DE9F041164607460C468028A5
:101C500002D300278C1CE4B221463846FFF7DFFF91
:101C60000C48002500EB4616705DFFF74DFF6D1C1C
:101C7000102DF9DB641CE1B23846FFF7D0FF0024D9
:101C80003019007CFFF740FF641C102CF8DBBDE826
:101C9000F0810000D82800082DE9F0470025914682
:101CA0008A460446012B22D0DFF8BC80022B24D1C7
:101CB00055E02038C7B27E2C04D90AF10100002477
:101CC00000F0FF0A51462046FFF7A9FF07EB470047
:101CD000002608EB4007B85DFFF716FF761CF6B24A
:101CE000062EF8D3A41D6D1CE4B2EDB201E0DFF8BE
:101CF0007C8019F805000028DBD1BDE8F08720388A
:101D0000C7B2782C04D90AF10100002400F0FF0AC0
:101D100051462046FFF783FF5FF0000606EB0711F0
:101D200018F80100FFF7F0FE761CF6B2082EF5D386
:101D30000AF10100C1B22046FFF771FF5FF0000613
:101D400006EB071101EB0800007AFFF7DDFE761CB9
:101D5000F6B2082EF4D308346D1CE4B2EDB219F8D3
:101D600005000028CBD1C8E7E8220008C020000801
:101D70002DE9F0475B4F01213846FEF7B7FD5A4D7C
:101D800040F2E6367C14C0B93046401EFDD2012137
:101D90003846FEF7ABFD28B10FE000222146284669
:101DA000FEF7A9FD01213846FEF7A0FD0028F4D07A
:101DB000012221462846FEF79EFD2021B8463846DE
:101DC000FEF794FD494F18BB3046401EFDD220213E
:101DD0004046FEF78BFD28B11AE000222146284636
:101DE000FEF789FD20214046FEF780FD0028F4D053
:101DF000012221462846FEF77EFD386880F001006A
:101E00003860FFF74FFE386801280BD000F072F8F9
:101E100040214046FEF76AFDDFF8D4904FF0030AF8
:101E200018B129E000F0F4F8F2E73046401EFDD288
:101E300040214046FEF75AFD28B11DE00022214610
:101E40002846FEF758FD40214046FEF74FFD00288A
:101E5000F4D0012221462846FEF74DFD38680128BE
:101E600018D0D9F80000401C90FBFAF30AFB1300CD
:101E7000C9F8000000F03EF880214046FEF736FD2C
:101E8000002807D1761EFDD2802146464046FEF747
:101E90002DFD30B1BDE8F087002221462846FEF72F
:101EA0002AFD80213046FEF721FD0028F4D00122D2
:101EB00021462846FEF71FFD38680128EAD0D9F8E8
:101EC00000205146521E92FBF1F30AFB1322D21C52
:101ED00092FBFAF30AFB1321C9F80010BDE8F047A2
:101EE00000F008B800080140001001401C0000206C
:101EF0001800002070B5002211461046FFF7A2FE20
:101F0000012200211020FFF79DFE02220021202047
:101F1000FFF798FE032200213020FFF793FE0422F2
:101F200000214020FFF78EFE0024022505EB44002F
:101F3000C1B20020FFF7D0FD641CE4B2022CF5D939
:101F40002C481322007805EB4000C1B20020FFF7B7
:101F500079FE052202211020FFF774FE06220221DD
:101F60002020FFF76FFE042202213020FFF76AFED7
:101F70000D2202214020FFF765FE02231EA2194612
:101F80005020FFF789FE072204211020FFF75AFE98
:101F9000082204212020FFF755FE0422114630209C
:101FA000FFF750FE0D2204214020FFF74BFE0223D5
:101FB00013A204215020FFF76FFE092206211020F2
:101FC000FFF740FE0A2206212020FFF73BFE0B22EE
:101FD00006213020FFF736FE0C2206214020FFF7B5
:101FE00031FEBDE870400223062107A25020FFF712
:101FF00053BE000018000020322E30302F67000042
:10200000322E35302F670000302E35302F6700001C
:1020100010B500210E220846FFF714FE0F22002102
:102020001020FFF70FFE042200212020FFF70AFEF8
:10203000102202210020FFF705FE112202211020AC
:10204000FFF700FE042202212020FFF7FBFD1548C8
:102050000068B8B101281CD0092204212420FFF710
:10206000F1FD0A2204213420FFF7ECFD0B220421AC
:102070004420FFF7E7FD0C2204215420BDE8104066
:10208000FFF7E0BD052204212420FFF7DBFD062237
:1020900005E0072204212420FFF7D4FD08220421B3
:1020A0003420EBE7180000200000000000000000D2
:1020B00001020304060708090000000001020304EE
:1020C0000000000000000000002F000000000700DA
:1020D000070000147F147F1400242A7F2A12006254
:1020E0006408132300364955225000000503000000
:1020F00000001C224100000041221C000014083E88
:1021000008140008083E0808000000A0600000084D
:1021100008080808000060600000002010080402A1
:10212000003E5149453E0000427F4000004261515F
:102130004946002141454B31001814127F100027F9
:1021400045454539003C4A494930000171090503BC
:1021500000364949493600064949291E00003636ED
:102160000000000056360000000814224100001450
:10217000141414140000412214080002015109062D
:1021800000324959513E007C1211127C007F4949AE
:102190004936003E41414122007F4141221C007FDF
:1021A00049494941007F09090901003E4149497AED
:1021B000007F0808087F0000417F41000020404167
:1021C0003F01007F08142241007F40404040007FD3
:1021D000020C027F007F0408107F003E4141413E17
:1021E000007F09090906003E4151215E007F09195F
:1021F00029460046494949310001017F0101003F5C
:102200004040403F001F2040201F003F4038403FDB
:10221000006314081463000708700807006151493F
:10222000454300007F41410000552A552A550000D2
:1022300041417F0000040201020400404040404050
:10224000000001020400002054545478007F4844E8
:10225000443800384444442000384444487F00381F
:102260005454541800087E0901020018A4A4A47C48
:10227000007F080404780000447D40000040808412
:102280007D00007F102844000000417F4000007C5A
:1022900004180478007C0804047800384444443866
:1022A00000FC242424180018242418FC007C0804B2
:1022B000040800485454542000043F444020003C8B
:1022C0004040207C001C2040201C003C4030403C12
:1022D000004428102844001CA0A0A07C00446454A2
:1022E0004C441414141414140000000000000000E6
:1022F0000000000000000000000000F800000000E6
:10230000000000333000000000100C06100C060026
:10231000000000000000000040C07840C07840008D
:10232000043F04043F040400007088FC08300000EF
:10233000001820FF211E0000F008F000E018000047
:1023400000211C031E211E0000F008887000000000
:102350001E2123241927211010160E000000000052
:102360000000000000000000000000E0180402006F
:10237000000000071820400000020418E0000000E0
:102380000040201807000000404080F080404000DE
:102390000202010F01020200000000F00000000034
:1023A0000101011F01010100000000000000000008
:1023B00080B070000000000000000000000000007D
:1023C0000001010101010101000000000000000006
:1023D00000303000000000000000000080601804A1
:1023E000006018060100000000E010080810E0007E
:1023F000000F102020100F00001010F80000000047
:102400000020203F2020000000700808088870008D
:10241000003028242221300000300888884830000D
:102420000018202020110E000000C02010F800002D
:1024300000070424243F240000F8088888080800C6
:102440000019212020110E0000E0108888180000DB
:10245000000F112020110E0000380808C8380800AD
:102460000000003F0000000000708808088870002D
:10247000001C222121221C0000E010080810E000AE
:102480000000312222110F00000000C0C000000037
:10249000000000303000000000000080000000005C
:1024A0000000806000000000000080402010080054
:1024B000000102040810200040404040404040001D
:1024C00004040404040404000008102040800000F8
:1024D0000020100804020100007048080808F000FD
:1024E0000000003036010000C030C828E810E000CD
:1024F0000718272423140B000000C038E000000058
:10250000203C23020227382008F8888888700000C1
:10251000203F202020110E00C03008080808380095
:10252000071820202010080008F808080810E0000C
:10253000203F202020100F0008F88888E8081000AD
:10254000203F20202320180008F88888E808100081
:10255000203F200003000000C030080808380000B9
:1025600007182020221E020008F808000008F808BA
:10257000203F210101213F20000808F80808000041
:102580000020203F2020000000000808F808080074
:10259000C08080807F00000008F888C028180800EC
:1025A000203F20012638200008F808000000000025
:1025B000203F20202020300008F8F800F8F808001C
:1025C000203F003F003F200008F830C00008F80816
:1025D000203F200007183F00E01008080810E00026
:1025E0000F10202020100F0008F808080808F0003D
:1025F000203F210101010000E01008080810E00060
:102600000F18242438504F0008F8888888887000F4
:10261000203F2000030C3020007088080808380094
:102620000038202121221C00180808F8080818008A
:102630000000203F2000000008F808000008F8080B
:10264000001F202020201F000878880000C83808BC
:10265000000007380E010000F80800F80008F80034
:10266000033C0700073C03000818688080681808CE
:1026700020302C03032C30200838C800C83808004C
:102680000000203F2000000010080808C83808009B
:102690002038262120201800000000FE020202003F
:1026A0000000007F40404000000C30C000000000EF
:1026B000000000010638C00000020202FE00000017
:1026C000004040407F0000000000040202020400BD
:1026D00000000000000000000000000000000000FA
:1026E00080808080808080800002020400000000E2
:1026F00000000000000000000000808080800000DA
:102700000019242222223F2008F8008080000000C7
:10271000003F112020110E0000000080808000008A
:10272000000E112020201100000000808088F80099
:10273000000E112020103F200000808080800000CB
:10274000001F222222221300008080F0888888182F
:102750000020203F2020000000008080808080003A
:10276000006B94949493600008F8008080800000CF
:10277000203F210000203F200080989800000000AA
:102780000020203F202000000000008098980000DA
:1027900000C08080807F000008F8000080808000FA
:1027A000203F24022D302000000808F8000000001F
:1027B0000020203F202000008080808080808000DA
:1027C000203F20003F20003F80800080808000006C
:1027D000203F210000203F200000808080800000FA
:1027E000001F202020201F0080800080800000002B
:1027F00080FFA12020110E0000000080808080005A
:10280000000E112020A0FF8080808000808080004A
:1028100020203F2120000100000080808080800077
:102820000033242424241900008080E080800000EC
:102830000000001F20200000808000000080800039
:10284000001F202020103F2080808000008080809A
:1028500000010E300806010080800080008080802A
:102860000F300C030C300F0000808000808080004F
:102870000020312E0E31200080808000008080807A
:1028800080818E701806010000808080808080002A
:102890000021302C2221300000000000807C020248
:1028A00000000000003F404000000000FF0000006A
:1028B00000000000FF0000000002027C8000000019
:1028C0000040403F00000000000601010202040435
:1028D00000000000000000000000F8494A4C48F8E1
:1028E000484C4A49F800000010101312121212FF4F
:1028F0001212121213101000008060F8074020908E
:102900000C030C9020404000010000FF0080601F7D
:10291000000000FF00000000404042CC00504EC8C4
:10292000487FC848484000000040201F20504C43CA
:1029300040404F50505C40001010FF100082864A0B
:1029400052A2524A8680800042827F0100101212F9
:1029500012FF121212100000000000000000000020
:1029600000000000000000000000363600000000FB
:1029700000000000000000000202E22222FE2222EB
:1029800022FE2222E20202000000FF4844434040AF
:1029900040434444FF000000000000FC0404FC0429
:1029A0000202FE03020000008060180700007F2082
:1029B0001408310E30408000042424A42F2424E481
:1029C00024242FA424240400080808080B0808FF66
:1029D00008080A0908080800000000FE929292FE0A
:1029E000929292FE0000000044442425140C04FF3F
:1029F000040C1425244444008040301E101010FFA5
:102A00001010101010100000404042424242427F1D
:102A10004242424242404000000000FC0404FC04E8
:102A20000202FE03020000008060180700007F2001
:102A30001408310E304080008041211D214141FFAA
:102A400049494949494340000040C05F4949497FDD
:102A50004949494F60C0000080828282828282E2BE
:102A6000A2928A8682808000000000000040807F61
:102A7000000000000000000000000004081020C05A
:102A80002010080400000000000000000202027F85
:102A90000202020000000000101014D4545454FC30
:102AA000525252D312101000404050575555557F86
:102AB0005555555750404000202020BEAAAAAAAA2A
:102AC000AAAAAABE20202000008080AFAAAAAAFF3E
:102AD000AAAAAAAF80800000000000F11214101012
:102AE000101412F10000000040300003394141454C
:102AF0005941417300083000008060F80740209081
:102B00000C030C9020404000010000FF0080601F7B
:102B1000000000FF000000002020222222E22222EA
:102B200022E2222222202000804020100C030000FC
:102B3000003F4040404078000000000000000000DE
:102B40000000000000000000000000000000000382
:102B50000300000000000000782B000800000020A7
:102B60002000000028180008982B000820000020F2
:102B7000A804000038180008000000000000000051
:102B80000100000010000000000000000024F4001C
:082B900000000000000000003D
:04000005080000ED02
:00000001FF
